{
  "_format": "hh-sol-artifact-1",
  "contractName": "MFAIToken",
  "sourceName": "contracts/MFAIToken.sol",
  "abi": [
    {
      "inputs": [
        {
          "internalType": "address",
          "name": "_endpoint",
          "type": "address"
        }
      ],
      "stateMutability": "nonpayable",
      "type": "constructor"
    },
    {
      "anonymous": false,
      "inputs": [
        {
          "indexed": true,
          "internalType": "address",
          "name": "owner",
          "type": "address"
        },
        {
          "indexed": true,
          "internalType": "address",
          "name": "spender",
          "type": "address"
        },
        {
          "indexed": false,
          "internalType": "uint256",
          "name": "value",
          "type": "uint256"
        }
      ],
      "name": "Approval",
      "type": "event"
    },
    {
      "anonymous": false,
      "inputs": [
        {
          "indexed": false,
          "internalType": "uint16",
          "name": "_srcChainId",
          "type": "uint16"
        },
        {
          "indexed": false,
          "internalType": "bytes",
          "name": "_srcAddress",
          "type": "bytes"
        },
        {
          "indexed": false,
          "internalType": "uint64",
          "name": "_nonce",
          "type": "uint64"
        },
        {
          "indexed": false,
          "internalType": "bytes",
          "name": "_payload",
          "type": "bytes"
        }
      ],
      "name": "MessageFailed",
      "type": "event"
    },
    {
      "anonymous": false,
      "inputs": [
        {
          "indexed": true,
          "internalType": "address",
          "name": "previousOwner",
          "type": "address"
        },
        {
          "indexed": true,
          "internalType": "address",
          "name": "newOwner",
          "type": "address"
        }
      ],
      "name": "OwnershipTransferred",
      "type": "event"
    },
    {
      "anonymous": false,
      "inputs": [
        {
          "indexed": false,
          "internalType": "uint16",
          "name": "_srcChainId",
          "type": "uint16"
        },
        {
          "indexed": false,
          "internalType": "bytes",
          "name": "_srcAddress",
          "type": "bytes"
        }
      ],
      "name": "SetTrustedRemote",
      "type": "event"
    },
    {
      "anonymous": false,
      "inputs": [
        {
          "indexed": true,
          "internalType": "address",
          "name": "from",
          "type": "address"
        },
        {
          "indexed": true,
          "internalType": "address",
          "name": "to",
          "type": "address"
        },
        {
          "indexed": false,
          "internalType": "uint256",
          "name": "value",
          "type": "uint256"
        }
      ],
      "name": "Transfer",
      "type": "event"
    },
    {
      "inputs": [
        {
          "internalType": "address",
          "name": "owner",
          "type": "address"
        },
        {
          "internalType": "address",
          "name": "spender",
          "type": "address"
        }
      ],
      "name": "allowance",
      "outputs": [
        {
          "internalType": "uint256",
          "name": "",
          "type": "uint256"
        }
      ],
      "stateMutability": "view",
      "type": "function"
    },
    {
      "inputs": [
        {
          "internalType": "address",
          "name": "spender",
          "type": "address"
        },
        {
          "internalType": "uint256",
          "name": "amount",
          "type": "uint256"
        }
      ],
      "name": "approve",
      "outputs": [
        {
          "internalType": "bool",
          "name": "",
          "type": "bool"
        }
      ],
      "stateMutability": "nonpayable",
      "type": "function"
    },
    {
      "inputs": [
        {
          "internalType": "address",
          "name": "account",
          "type": "address"
        }
      ],
      "name": "balanceOf",
      "outputs": [
        {
          "internalType": "uint256",
          "name": "",
          "type": "uint256"
        }
      ],
      "stateMutability": "view",
      "type": "function"
    },
    {
      "inputs": [],
      "name": "decimals",
      "outputs": [
        {
          "internalType": "uint8",
          "name": "",
          "type": "uint8"
        }
      ],
      "stateMutability": "view",
      "type": "function"
    },
    {
      "inputs": [
        {
          "internalType": "address",
          "name": "spender",
          "type": "address"
        },
        {
          "internalType": "uint256",
          "name": "subtractedValue",
          "type": "uint256"
        }
      ],
      "name": "decreaseAllowance",
      "outputs": [
        {
          "internalType": "bool",
          "name": "",
          "type": "bool"
        }
      ],
      "stateMutability": "nonpayable",
      "type": "function"
    },
    {
      "inputs": [
        {
          "internalType": "uint16",
          "name": "_dstChainId",
          "type": "uint16"
        },
        {
          "internalType": "bytes",
          "name": "_destination",
          "type": "bytes"
        },
        {
          "internalType": "uint256",
          "name": "_amount",
          "type": "uint256"
        }
      ],
      "name": "estimateFee",
      "outputs": [
        {
          "internalType": "uint256",
          "name": "nativeFee",
          "type": "uint256"
        },
        {
          "internalType": "uint256",
          "name": "zroFee",
          "type": "uint256"
        }
      ],
      "stateMutability": "view",
      "type": "function"
    },
    {
      "inputs": [
        {
          "internalType": "address",
          "name": "spender",
          "type": "address"
        },
        {
          "internalType": "uint256",
          "name": "addedValue",
          "type": "uint256"
        }
      ],
      "name": "increaseAllowance",
      "outputs": [
        {
          "internalType": "bool",
          "name": "",
          "type": "bool"
        }
      ],
      "stateMutability": "nonpayable",
      "type": "function"
    },
    {
      "inputs": [
        {
          "internalType": "uint16",
          "name": "_srcChainId",
          "type": "uint16"
        },
        {
          "internalType": "bytes",
          "name": "_srcAddress",
          "type": "bytes"
        }
      ],
      "name": "isTrustedRemote",
      "outputs": [
        {
          "internalType": "bool",
          "name": "",
          "type": "bool"
        }
      ],
      "stateMutability": "view",
      "type": "function"
    },
    {
      "inputs": [],
      "name": "lzEndpoint",
      "outputs": [
        {
          "internalType": "contract ILayerZeroEndpoint",
          "name": "",
          "type": "address"
        }
      ],
      "stateMutability": "view",
      "type": "function"
    },
    {
      "inputs": [
        {
          "internalType": "uint16",
          "name": "_srcChainId",
          "type": "uint16"
        },
        {
          "internalType": "bytes",
          "name": "_srcAddress",
          "type": "bytes"
        },
        {
          "internalType": "uint64",
          "name": "_nonce",
          "type": "uint64"
        },
        {
          "internalType": "bytes",
          "name": "_payload",
          "type": "bytes"
        }
      ],
      "name": "lzReceive",
      "outputs": [],
      "stateMutability": "nonpayable",
      "type": "function"
    },
    {
      "inputs": [],
      "name": "name",
      "outputs": [
        {
          "internalType": "string",
          "name": "",
          "type": "string"
        }
      ],
      "stateMutability": "view",
      "type": "function"
    },
    {
      "inputs": [],
      "name": "owner",
      "outputs": [
        {
          "internalType": "address",
          "name": "",
          "type": "address"
        }
      ],
      "stateMutability": "view",
      "type": "function"
    },
    {
      "inputs": [],
      "name": "renounceOwnership",
      "outputs": [],
      "stateMutability": "nonpayable",
      "type": "function"
    },
    {
      "inputs": [
        {
          "internalType": "uint16",
          "name": "_dstChainId",
          "type": "uint16"
        },
        {
          "internalType": "bytes",
          "name": "_destination",
          "type": "bytes"
        },
        {
          "internalType": "uint256",
          "name": "_amount",
          "type": "uint256"
        }
      ],
      "name": "send",
      "outputs": [],
      "stateMutability": "payable",
      "type": "function"
    },
    {
      "inputs": [
        {
          "internalType": "uint16",
          "name": "_srcChainId",
          "type": "uint16"
        },
        {
          "internalType": "bytes",
          "name": "_srcAddress",
          "type": "bytes"
        }
      ],
      "name": "setTrustedRemote",
      "outputs": [],
      "stateMutability": "nonpayable",
      "type": "function"
    },
    {
      "inputs": [],
      "name": "symbol",
      "outputs": [
        {
          "internalType": "string",
          "name": "",
          "type": "string"
        }
      ],
      "stateMutability": "view",
      "type": "function"
    },
    {
      "inputs": [],
      "name": "totalSupply",
      "outputs": [
        {
          "internalType": "uint256",
          "name": "",
          "type": "uint256"
        }
      ],
      "stateMutability": "view",
      "type": "function"
    },
    {
      "inputs": [
        {
          "internalType": "address",
          "name": "to",
          "type": "address"
        },
        {
          "internalType": "uint256",
          "name": "amount",
          "type": "uint256"
        }
      ],
      "name": "transfer",
      "outputs": [
        {
          "internalType": "bool",
          "name": "",
          "type": "bool"
        }
      ],
      "stateMutability": "nonpayable",
      "type": "function"
    },
    {
      "inputs": [
        {
          "internalType": "address",
          "name": "from",
          "type": "address"
        },
        {
          "internalType": "address",
          "name": "to",
          "type": "address"
        },
        {
          "internalType": "uint256",
          "name": "amount",
          "type": "uint256"
        }
      ],
      "name": "transferFrom",
      "outputs": [
        {
          "internalType": "bool",
          "name": "",
          "type": "bool"
        }
      ],
      "stateMutability": "nonpayable",
      "type": "function"
    },
    {
      "inputs": [
        {
          "internalType": "address",
          "name": "newOwner",
          "type": "address"
        }
      ],
      "name": "transferOwnership",
      "outputs": [],
      "stateMutability": "nonpayable",
      "type": "function"
    },
    {
      "inputs": [
        {
          "internalType": "uint16",
          "name": "",
          "type": "uint16"
        }
      ],
      "name": "trustedRemoteLookup",
      "outputs": [
        {
          "internalType": "bytes",
          "name": "",
          "type": "bytes"
        }
      ],
      "stateMutability": "view",
      "type": "function"
    }
  ],
  "bytecode": "0x60a06040523480156200001157600080fd5b5060405162001f4e38038062001f4e83398101604081905262000034916200020e565b806040518060400160405280600a81526020016926a320a4902a37b5b2b760b11b815250604051806040016040528060048152602001634d46414960e01b8152508160039081620000869190620002e4565b506004620000958282620002e4565b505050620000b2620000ac620000ed60201b60201c565b620000f1565b6001600160a01b0316608052620000e633620000d16012600a620004c5565b620000e090620f4240620004d6565b62000143565b5062000506565b3390565b600580546001600160a01b038381166001600160a01b0319831681179093556040519116919082907f8be0079c531659141344cd1fd0a4f28419497f9722a3daafe3b4186f6b6457e090600090a35050565b6001600160a01b0382166200019e5760405162461bcd60e51b815260206004820152601f60248201527f45524332303a206d696e7420746f20746865207a65726f206164647265737300604482015260640160405180910390fd5b8060026000828254620001b29190620004f0565b90915550506001600160a01b038216600081815260208181526040808320805486019055518481527fddf252ad1be2c89b69c2b068fc378daa952ba7f163c4a11628f55a4df523b3ef910160405180910390a35050565b505050565b6000602082840312156200022157600080fd5b81516001600160a01b03811681146200023957600080fd5b9392505050565b634e487b7160e01b600052604160045260246000fd5b600181811c908216806200026b57607f821691505b6020821081036200028c57634e487b7160e01b600052602260045260246000fd5b50919050565b601f8211156200020957600081815260208120601f850160051c81016020861015620002bb5750805b601f850160051c820191505b81811015620002dc57828155600101620002c7565b505050505050565b81516001600160401b0381111562000300576200030062000240565b620003188162000311845462000256565b8462000292565b602080601f831160018114620003505760008415620003375750858301515b600019600386901b1c1916600185901b178555620002dc565b600085815260208120601f198616915b82811015620003815788860151825594840194600190910190840162000360565b5085821015620003a05787850151600019600388901b60f8161c191681555b5050505050600190811b01905550565b634e487b7160e01b600052601160045260246000fd5b600181815b8085111562000407578160001904821115620003eb57620003eb620003b0565b80851615620003f957918102915b93841c9390800290620003cb565b509250929050565b6000826200042057506001620004bf565b816200042f57506000620004bf565b8160018114620004485760028114620004535762000473565b6001915050620004bf565b60ff841115620004675762000467620003b0565b50506001821b620004bf565b5060208310610133831016604e8410600b841016171562000498575081810a620004bf565b620004a48383620003c6565b8060001904821115620004bb57620004bb620003b0565b0290505b92915050565b60006200023960ff8416836200040f565b8082028115828204841417620004bf57620004bf620003b0565b80820180821115620004bf57620004bf620003b0565b608051611a17620005376000396000818161039201528181610468015281816106cd0152610fd60152611a176000f3fe6080604052600436106101295760003560e01c8063715018a6116100ab578063a457c2d71161006f578063a457c2d714610340578063a9059cbb14610360578063b353aaa714610380578063dd62ed3e146103b4578063eb8d72b7146103d4578063f2fde38b146103f457600080fd5b8063715018a6146102b15780637533d788146102c657806389a4abbf146102e65780638da5cb5b146102f957806395d89b411461032b57600080fd5b8063313ce567116100f2578063313ce567146101ea57806339509351146102065780633d8b38f61461022657806342a1c22a1461024657806370a082311461027b57600080fd5b80621d35671461012e57806306fdde0314610150578063095ea7b31461017b57806318160ddd146101ab57806323b872dd146101ca575b600080fd5b34801561013a57600080fd5b5061014e610149366004611313565b610414565b005b34801561015c57600080fd5b50610165610553565b60405161017291906113f3565b60405180910390f35b34801561018757600080fd5b5061019b610196366004611422565b6105e5565b6040519015158152602001610172565b3480156101b757600080fd5b506002545b604051908152602001610172565b3480156101d657600080fd5b5061019b6101e536600461144e565b6105ff565b3480156101f657600080fd5b5060405160128152602001610172565b34801561021257600080fd5b5061019b610221366004611422565b610623565b34801561023257600080fd5b5061019b61024136600461148f565b610645565b34801561025257600080fd5b506102666102613660046114f8565b610692565b60408051928352602083019190915201610172565b34801561028757600080fd5b506101bc6102963660046115c3565b6001600160a01b031660009081526020819052604090205490565b3480156102bd57600080fd5b5061014e61075e565b3480156102d257600080fd5b506101656102e13660046115e0565b610772565b61014e6102f43660046114f8565b61080c565b34801561030557600080fd5b506005546001600160a01b03165b6040516001600160a01b039091168152602001610172565b34801561033757600080fd5b5061016561091c565b34801561034c57600080fd5b5061019b61035b366004611422565b61092b565b34801561036c57600080fd5b5061019b61037b366004611422565b6109a6565b34801561038c57600080fd5b506103137f000000000000000000000000000000000000000000000000000000000000000081565b3480156103c057600080fd5b506101bc6103cf3660046115fb565b6109b4565b3480156103e057600080fd5b5061014e6103ef36600461148f565b6109df565b34801561040057600080fd5b5061014e61040f3660046115c3565b610a3e565b60075460ff161561045d5760405162461bcd60e51b815260206004820152600e60248201526d2637b1b0b6103a3930b739b332b960911b60448201526064015b60405180910390fd5b336001600160a01b037f000000000000000000000000000000000000000000000000000000000000000016146104d55760405162461bcd60e51b815260206004820152601e60248201527f4c7a4170703a20696e76616c696420656e64706f696e742063616c6c657200006044820152606401610454565b61054b8686868080601f01602080910402602001604051908101604052809392919081815260200183838082843760009201919091525050604080516020601f890181900481028201810190925287815289935091508790879081908401838280828437600092019190915250610ab792505050565b505050505050565b60606003805461056290611634565b80601f016020809104026020016040519081016040528092919081815260200182805461058e90611634565b80156105db5780601f106105b0576101008083540402835291602001916105db565b820191906000526020600020905b8154815290600101906020018083116105be57829003601f168201915b5050505050905090565b6000336105f3818585610c11565b60019150505b92915050565b60003361060d858285610d36565b610618858585610daa565b506001949350505050565b6000336105f381858561063683836109b4565b610640919061166e565b610c11565b6000828260405161065792919061168f565b6040805191829003822061ffff871660009081526006602052919091209091610680919061169f565b60405180910390201490509392505050565b6040805133602082015280820183905281518082038301815260808201835260006060909201828152925163040a7bb160e41b8152919283927f00000000000000000000000000000000000000000000000000000000000000006001600160a01b0316916340a7bb1091610711918a9130918791899190600401611715565b6040805180830381865afa15801561072d573d6000803e3d6000fd5b505050506040513d601f19601f820116820180604052508101906107519190611769565b9250925050935093915050565b610766610dd1565b6107706000610e2b565b565b6006602052600090815260409020805461078b90611634565b80601f01602080910402602001604051908101604052809291908181526020018280546107b790611634565b80156108045780601f106107d957610100808354040283529160200191610804565b820191906000526020600020905b8154815290600101906020018083116107e757829003601f168201915b505050505081565b336000908152602081905260409020548111156108625760405162461bcd60e51b8152602060048201526014602482015273496e73756666696369656e742062616c616e636560601b6044820152606401610454565b61ffff83166000908152600660205260408120805461088090611634565b9050116108cf5760405162461bcd60e51b815260206004820152601d60248201527f44657374696e6174696f6e20636861696e206e6f7420747275737465640000006044820152606401610454565b6108d93382610e7d565b6040805133602082018190528183018490528251808303840181526080830190935260006060909201828152610916928792859290919034610fac565b50505050565b60606004805461056290611634565b6000338161093982866109b4565b9050838110156109995760405162461bcd60e51b815260206004820152602560248201527f45524332303a2064656372656173656420616c6c6f77616e63652062656c6f77604482015264207a65726f60d81b6064820152608401610454565b6106188286868403610c11565b6000336105f3818585610daa565b6001600160a01b03918216600090815260016020908152604080832093909416825291909152205490565b61ffff831660009081526006602052604090206109fd8284836117d3565b507ffa41487ad5d6728f0b19276fa1eddc16558578f5109fc39d2dc33c3230470dab838383604051610a3193929190611894565b60405180910390a1505050565b610a46610dd1565b6001600160a01b038116610aab5760405162461bcd60e51b815260206004820152602660248201527f4f776e61626c653a206e6577206f776e657220697320746865207a65726f206160448201526564647265737360d01b6064820152608401610454565b610ab481610e2b565b50565b8251601414610b015760405162461bcd60e51b8152602060048201526016602482015275496e76616c696420736f75726365206164647265737360501b6044820152606401610454565b61ffff841660009081526006602052604081208054610b1f90611634565b905011610b6e5760405162461bcd60e51b815260206004820152601860248201527f536f7572636520636861696e206e6f74207472757374656400000000000000006044820152606401610454565b61ffff8416600090815260066020526040908190209051610b8f919061169f565b6040518091039020838051906020012014610bec5760405162461bcd60e51b815260206004820152601a60248201527f536f757263652061646472657373206e6f7420747275737465640000000000006044820152606401610454565b60008082806020019051810190610c0391906118ce565b9150915061054b8282611050565b6001600160a01b038316610c735760405162461bcd60e51b8152602060048201526024808201527f45524332303a20617070726f76652066726f6d20746865207a65726f206164646044820152637265737360e01b6064820152608401610454565b6001600160a01b038216610cd45760405162461bcd60e51b815260206004820152602260248201527f45524332303a20617070726f766520746f20746865207a65726f206164647265604482015261737360f01b6064820152608401610454565b6001600160a01b0383811660008181526001602090815260408083209487168084529482529182902085905590518481527f8c5be1e5ebec7d5bd14f71427d1e84f3dd0314c0f7b2291e5b200ac8c7c3b92591015b60405180910390a3505050565b6000610d4284846109b4565b905060001981146109165781811015610d9d5760405162461bcd60e51b815260206004820152601d60248201527f45524332303a20696e73756666696369656e7420616c6c6f77616e63650000006044820152606401610454565b6109168484848403610c11565b6007805460ff19166001179055610dc283838361110f565b50506007805460ff1916905550565b6005546001600160a01b031633146107705760405162461bcd60e51b815260206004820181905260248201527f4f776e61626c653a2063616c6c6572206973206e6f7420746865206f776e65726044820152606401610454565b600580546001600160a01b038381166001600160a01b0319831681179093556040519116919082907f8be0079c531659141344cd1fd0a4f28419497f9722a3daafe3b4186f6b6457e090600090a35050565b6001600160a01b038216610edd5760405162461bcd60e51b815260206004820152602160248201527f45524332303a206275726e2066726f6d20746865207a65726f206164647265736044820152607360f81b6064820152608401610454565b6001600160a01b03821660009081526020819052604090205481811015610f515760405162461bcd60e51b815260206004820152602260248201527f45524332303a206275726e20616d6f756e7420657863656564732062616c616e604482015261636560f01b6064820152608401610454565b6001600160a01b0383166000818152602081815260408083208686039055600280548790039055518581529192917fddf252ad1be2c89b69c2b068fc378daa952ba7f163c4a11628f55a4df523b3ef9101610d29565b505050565b61ffff861660009081526006602052604090819020905162c5803160e81b81526001600160a01b037f0000000000000000000000000000000000000000000000000000000000000000169163c5803100918491611016918b91908b908b908b908b906004016118fc565b6000604051808303818588803b15801561102f57600080fd5b505af1158015611043573d6000803e3d6000fd5b5050505050505050505050565b6001600160a01b0382166110a65760405162461bcd60e51b815260206004820152601f60248201527f45524332303a206d696e7420746f20746865207a65726f2061646472657373006044820152606401610454565b80600260008282546110b8919061166e565b90915550506001600160a01b038216600081815260208181526040808320805486019055518481527fddf252ad1be2c89b69c2b068fc378daa952ba7f163c4a11628f55a4df523b3ef910160405180910390a35050565b6001600160a01b0383166111735760405162461bcd60e51b815260206004820152602560248201527f45524332303a207472616e736665722066726f6d20746865207a65726f206164604482015264647265737360d81b6064820152608401610454565b6001600160a01b0382166111d55760405162461bcd60e51b815260206004820152602360248201527f45524332303a207472616e7366657220746f20746865207a65726f206164647260448201526265737360e81b6064820152608401610454565b6001600160a01b0383166000908152602081905260409020548181101561124d5760405162461bcd60e51b815260206004820152602660248201527f45524332303a207472616e7366657220616d6f756e7420657863656564732062604482015265616c616e636560d01b6064820152608401610454565b6001600160a01b03848116600081815260208181526040808320878703905593871680835291849020805487019055925185815290927fddf252ad1be2c89b69c2b068fc378daa952ba7f163c4a11628f55a4df523b3ef910160405180910390a3610916565b803561ffff811681146112c557600080fd5b919050565b60008083601f8401126112dc57600080fd5b50813567ffffffffffffffff8111156112f457600080fd5b60208301915083602082850101111561130c57600080fd5b9250929050565b6000806000806000806080878903121561132c57600080fd5b611335876112b3565b9550602087013567ffffffffffffffff8082111561135257600080fd5b61135e8a838b016112ca565b909750955060408901359150808216821461137857600080fd5b9093506060880135908082111561138e57600080fd5b5061139b89828a016112ca565b979a9699509497509295939492505050565b6000815180845260005b818110156113d3576020818501810151868301820152016113b7565b506000602082860101526020601f19601f83011685010191505092915050565b60208152600061140660208301846113ad565b9392505050565b6001600160a01b0381168114610ab457600080fd5b6000806040838503121561143557600080fd5b82356114408161140d565b946020939093013593505050565b60008060006060848603121561146357600080fd5b833561146e8161140d565b9250602084013561147e8161140d565b929592945050506040919091013590565b6000806000604084860312156114a457600080fd5b6114ad846112b3565b9250602084013567ffffffffffffffff8111156114c957600080fd5b6114d5868287016112ca565b9497909650939450505050565b634e487b7160e01b600052604160045260246000fd5b60008060006060848603121561150d57600080fd5b611516846112b3565b9250602084013567ffffffffffffffff8082111561153357600080fd5b818601915086601f83011261154757600080fd5b813581811115611559576115596114e2565b604051601f8201601f19908116603f01168101908382118183101715611581576115816114e2565b8160405282815289602084870101111561159a57600080fd5b826020860160208301376000602084830101528096505050505050604084013590509250925092565b6000602082840312156115d557600080fd5b81356114068161140d565b6000602082840312156115f257600080fd5b611406826112b3565b6000806040838503121561160e57600080fd5b82356116198161140d565b915060208301356116298161140d565b809150509250929050565b600181811c9082168061164857607f821691505b60208210810361166857634e487b7160e01b600052602260045260246000fd5b50919050565b808201808211156105f957634e487b7160e01b600052601160045260246000fd5b8183823760009101908152919050565b60008083546116ad81611634565b600182811680156116c557600181146116da57611709565b60ff1984168752821515830287019450611709565b8760005260208060002060005b858110156117005781548a8201529084019082016116e7565b50505082870194505b50929695505050505050565b61ffff861681526001600160a01b038516602082015260a060408201819052600090611743908301866113ad565b8415156060840152828103608084015261175d81856113ad565b98975050505050505050565b6000806040838503121561177c57600080fd5b505080516020909101519092909150565b601f821115610fa757600081815260208120601f850160051c810160208610156117b45750805b601f850160051c820191505b8181101561054b578281556001016117c0565b67ffffffffffffffff8311156117eb576117eb6114e2565b6117ff836117f98354611634565b8361178d565b6000601f841160018114611833576000851561181b5750838201355b600019600387901b1c1916600186901b17835561188d565b600083815260209020601f19861690835b828110156118645786850135825560209485019460019092019101611844565b50868210156118815760001960f88860031b161c19848701351681555b505060018560011b0183555b5050505050565b61ffff8416815260406020820152816040820152818360608301376000818301606090810191909152601f909201601f1916010192915050565b600080604083850312156118e157600080fd5b82516118ec8161140d565b6020939093015192949293505050565b61ffff871681526000602060c0818401526000885461191a81611634565b8060c087015260e060018084166000811461193c576001811461195657611984565b60ff1985168984015283151560051b890183019550611984565b8d6000528660002060005b8581101561197c5781548b8201860152908301908801611961565b8a0184019650505b5050505050838103604085015261199b81896113ad565b9150506119b360608401876001600160a01b03169052565b6001600160a01b038516608084015282810360a08401526119d481856113ad565b999850505050505050505056fea2646970667358221220e08afeb0fbb5df0f51c4059e53ed2f364c147aedb443c388ba0a3053bdf91efe64736f6c63430008110033",
  "linkReferences": {},
  "deployedLinkReferences": {}
}