{
  "_format": "hh-sol-artifact-1",
  "contractName": "MFAIStaking",
  "sourceName": "contracts/MFAIStaking.sol",
  "abi": [
    {
      "inputs": [
        {
          "internalType": "address",
          "name": "_stakingToken",
          "type": "address"
        }
      ],
      "stateMutability": "nonpayable",
      "type": "constructor"
    },
    {
      "anonymous": false,
      "inputs": [
        {
          "indexed": true,
          "internalType": "address",
          "name": "previousOwner",
          "type": "address"
        },
        {
          "indexed": true,
          "internalType": "address",
          "name": "newOwner",
          "type": "address"
        }
      ],
      "name": "OwnershipTransferred",
      "type": "event"
    },
    {
      "anonymous": false,
      "inputs": [
        {
          "indexed": true,
          "internalType": "address",
          "name": "user",
          "type": "address"
        },
        {
          "indexed": false,
          "internalType": "uint256",
          "name": "reward",
          "type": "uint256"
        }
      ],
      "name": "RewardPaid",
      "type": "event"
    },
    {
      "anonymous": false,
      "inputs": [
        {
          "indexed": false,
          "internalType": "uint256",
          "name": "newRate",
          "type": "uint256"
        }
      ],
      "name": "RewardRateUpdated",
      "type": "event"
    },
    {
      "anonymous": false,
      "inputs": [
        {
          "indexed": true,
          "internalType": "address",
          "name": "user",
          "type": "address"
        },
        {
          "indexed": false,
          "internalType": "uint256",
          "name": "amount",
          "type": "uint256"
        }
      ],
      "name": "Staked",
      "type": "event"
    },
    {
      "anonymous": false,
      "inputs": [
        {
          "indexed": true,
          "internalType": "address",
          "name": "user",
          "type": "address"
        },
        {
          "indexed": false,
          "internalType": "uint256",
          "name": "amount",
          "type": "uint256"
        }
      ],
      "name": "Withdrawn",
      "type": "event"
    },
    {
      "inputs": [
        {
          "internalType": "address",
          "name": "account",
          "type": "address"
        }
      ],
      "name": "balanceOf",
      "outputs": [
        {
          "internalType": "uint256",
          "name": "",
          "type": "uint256"
        }
      ],
      "stateMutability": "view",
      "type": "function"
    },
    {
      "inputs": [
        {
          "internalType": "address",
          "name": "account",
          "type": "address"
        }
      ],
      "name": "earned",
      "outputs": [
        {
          "internalType": "uint256",
          "name": "",
          "type": "uint256"
        }
      ],
      "stateMutability": "view",
      "type": "function"
    },
    {
      "inputs": [],
      "name": "exit",
      "outputs": [],
      "stateMutability": "nonpayable",
      "type": "function"
    },
    {
      "inputs": [],
      "name": "getReward",
      "outputs": [],
      "stateMutability": "nonpayable",
      "type": "function"
    },
    {
      "inputs": [],
      "name": "lastUpdateTime",
      "outputs": [
        {
          "internalType": "uint256",
          "name": "",
          "type": "uint256"
        }
      ],
      "stateMutability": "view",
      "type": "function"
    },
    {
      "inputs": [],
      "name": "owner",
      "outputs": [
        {
          "internalType": "address",
          "name": "",
          "type": "address"
        }
      ],
      "stateMutability": "view",
      "type": "function"
    },
    {
      "inputs": [],
      "name": "renounceOwnership",
      "outputs": [],
      "stateMutability": "nonpayable",
      "type": "function"
    },
    {
      "inputs": [],
      "name": "rewardPerToken",
      "outputs": [
        {
          "internalType": "uint256",
          "name": "",
          "type": "uint256"
        }
      ],
      "stateMutability": "view",
      "type": "function"
    },
    {
      "inputs": [],
      "name": "rewardPerTokenStored",
      "outputs": [
        {
          "internalType": "uint256",
          "name": "",
          "type": "uint256"
        }
      ],
      "stateMutability": "view",
      "type": "function"
    },
    {
      "inputs": [],
      "name": "rewardRate",
      "outputs": [
        {
          "internalType": "uint256",
          "name": "",
          "type": "uint256"
        }
      ],
      "stateMutability": "view",
      "type": "function"
    },
    {
      "inputs": [
        {
          "internalType": "address",
          "name": "",
          "type": "address"
        }
      ],
      "name": "rewards",
      "outputs": [
        {
          "internalType": "uint256",
          "name": "",
          "type": "uint256"
        }
      ],
      "stateMutability": "view",
      "type": "function"
    },
    {
      "inputs": [
        {
          "internalType": "uint256",
          "name": "_rewardRate",
          "type": "uint256"
        }
      ],
      "name": "setRewardRate",
      "outputs": [],
      "stateMutability": "nonpayable",
      "type": "function"
    },
    {
      "inputs": [
        {
          "internalType": "uint256",
          "name": "amount",
          "type": "uint256"
        }
      ],
      "name": "stake",
      "outputs": [],
      "stateMutability": "nonpayable",
      "type": "function"
    },
    {
      "inputs": [],
      "name": "stakingToken",
      "outputs": [
        {
          "internalType": "contract IERC20",
          "name": "",
          "type": "address"
        }
      ],
      "stateMutability": "view",
      "type": "function"
    },
    {
      "inputs": [],
      "name": "totalSupply",
      "outputs": [
        {
          "internalType": "uint256",
          "name": "",
          "type": "uint256"
        }
      ],
      "stateMutability": "view",
      "type": "function"
    },
    {
      "inputs": [
        {
          "internalType": "address",
          "name": "newOwner",
          "type": "address"
        }
      ],
      "name": "transferOwnership",
      "outputs": [],
      "stateMutability": "nonpayable",
      "type": "function"
    },
    {
      "inputs": [
        {
          "internalType": "address",
          "name": "",
          "type": "address"
        }
      ],
      "name": "userRewardPerTokenPaid",
      "outputs": [
        {
          "internalType": "uint256",
          "name": "",
          "type": "uint256"
        }
      ],
      "stateMutability": "view",
      "type": "function"
    },
    {
      "inputs": [
        {
          "internalType": "uint256",
          "name": "amount",
          "type": "uint256"
        }
      ],
      "name": "withdraw",
      "outputs": [],
      "stateMutability": "nonpayable",
      "type": "function"
    }
  ],
  "bytecode": "0x6080604052606460035534801561001557600080fd5b50604051610c92380380610c92833981016040819052610034916100bd565b60016000556100423361006b565b600280546001600160a01b0319166001600160a01b0392909216919091179055426004556100ed565b600180546001600160a01b038381166001600160a01b0319831681179093556040519116919082907f8be0079c531659141344cd1fd0a4f28419497f9722a3daafe3b4186f6b6457e090600090a35050565b6000602082840312156100cf57600080fd5b81516001600160a01b03811681146100e657600080fd5b9392505050565b610b96806100fc6000396000f3fe608060405234801561001057600080fd5b50600436106101155760003560e01c80638b876347116100a2578063c8f33c9111610071578063c8f33c9114610241578063cd3daf9d1461024a578063df136d6514610252578063e9fad8ee1461025b578063f2fde38b1461026357600080fd5b80638b876347146101ea5780638da5cb5b1461020a5780639e447fc61461021b578063a694fc3a1461022e57600080fd5b80633d18b912116100e95780633d18b9121461017d57806370a0823114610185578063715018a6146101ae57806372f702f3146101b65780637b0a47ee146101e157600080fd5b80628cc2621461011a5780630700037d1461014057806318160ddd146101605780632e1a7d4d14610168575b600080fd5b61012d610128366004610a57565b610276565b6040519081526020015b60405180910390f35b61012d61014e366004610a57565b60076020526000908152604090205481565b60095461012d565b61017b610176366004610a87565b6102f3565b005b61017b610507565b61012d610193366004610a57565b6001600160a01b031660009081526008602052604090205490565b61017b610661565b6002546101c9906001600160a01b031681565b6040516001600160a01b039091168152602001610137565b61012d60035481565b61012d6101f8366004610a57565b60066020526000908152604090205481565b6001546001600160a01b03166101c9565b61017b610229366004610a87565b610673565b61017b61023c366004610a87565b6106b6565b61012d60045481565b61012d610857565b61012d60055481565b61017b6108b5565b61017b610271366004610a57565b6108dc565b6001600160a01b0381166000908152600760209081526040808320546006909252822054670de0b6b3a7640000906102ac610857565b6102b69190610ab6565b6001600160a01b0385166000908152600860205260409020546102d99190610ac9565b6102e39190610ae0565b6102ed9190610b02565b92915050565b6102fb610952565b33610304610857565b600555426004556001600160a01b0381161561034f5761032381610276565b6001600160a01b0382166000908152600760209081526040808320939093556005546006909152919020555b600082116103985760405162461bcd60e51b8152602060048201526011602482015270043616e6e6f74207769746864726177203607c1b60448201526064015b60405180910390fd5b336000908152600860205260409020548211156103f75760405162461bcd60e51b815260206004820152601860248201527f4e6f7420656e6f756768207374616b656420746f6b656e730000000000000000604482015260640161038f565b81600960008282546104099190610ab6565b9091555050336000908152600860205260408120805484929061042d908490610ab6565b909155505060025460405163a9059cbb60e01b8152336004820152602481018490526001600160a01b039091169063a9059cbb906044016020604051808303816000875af1158015610483573d6000803e3d6000fd5b505050506040513d601f19601f820116820180604052508101906104a79190610b15565b6104c35760405162461bcd60e51b815260040161038f90610b37565b60405182815233907f7084f5476618d8e60b11ef0d7d3f06914655adb8793e28ff7f018d4c76d505d5906020015b60405180910390a2506105046001600055565b50565b61050f610952565b33610518610857565b600555426004556001600160a01b038116156105635761053781610276565b6001600160a01b0382166000908152600760209081526040808320939093556005546006909152919020555b336000908152600760205260409020548015610653573360008181526007602052604080822091909155600254905163a9059cbb60e01b81526004810192909252602482018390526001600160a01b03169063a9059cbb906044016020604051808303816000875af11580156105dd573d6000803e3d6000fd5b505050506040513d601f19601f820116820180604052508101906106019190610b15565b61061d5760405162461bcd60e51b815260040161038f90610b37565b60405181815233907fe2403640ba68fed3a2f88b7557551d1993f84b99bb10ff833f0cf8db0c5e04869060200160405180910390a25b505061065f6001600055565b565b6106696109ab565b61065f6000610a05565b61067b6109ab565b60038190556040518181527f41d466ebd06fb97e7786086ac8b69b7eb7da798592036251291d34e9791cde019060200160405180910390a150565b6106be610952565b336106c7610857565b600555426004556001600160a01b03811615610712576106e681610276565b6001600160a01b0382166000908152600760209081526040808320939093556005546006909152919020555b600082116107535760405162461bcd60e51b815260206004820152600e60248201526d043616e6e6f74207374616b6520360941b604482015260640161038f565b81600960008282546107659190610b02565b90915550503360009081526008602052604081208054849290610789908490610b02565b90915550506002546040516323b872dd60e01b8152336004820152306024820152604481018490526001600160a01b03909116906323b872dd906064016020604051808303816000875af11580156107e5573d6000803e3d6000fd5b505050506040513d601f19601f820116820180604052508101906108099190610b15565b6108255760405162461bcd60e51b815260040161038f90610b37565b60405182815233907f9e71bc8eea02a63969f509818f2dafb9254532904319f9dbda79b67bd34a5f3d906020016104f1565b600060095460000361086a575060055490565b60095460035460045461087d9042610ab6565b6108879190610ac9565b61089990670de0b6b3a7640000610ac9565b6108a39190610ae0565b6005546108b09190610b02565b905090565b3360009081526008602052604090205480156108d4576108d4816102f3565b610504610507565b6108e46109ab565b6001600160a01b0381166109495760405162461bcd60e51b815260206004820152602660248201527f4f776e61626c653a206e6577206f776e657220697320746865207a65726f206160448201526564647265737360d01b606482015260840161038f565b61050481610a05565b6002600054036109a45760405162461bcd60e51b815260206004820152601f60248201527f5265656e7472616e637947756172643a207265656e7472616e742063616c6c00604482015260640161038f565b6002600055565b6001546001600160a01b0316331461065f5760405162461bcd60e51b815260206004820181905260248201527f4f776e61626c653a2063616c6c6572206973206e6f7420746865206f776e6572604482015260640161038f565b600180546001600160a01b038381166001600160a01b0319831681179093556040519116919082907f8be0079c531659141344cd1fd0a4f28419497f9722a3daafe3b4186f6b6457e090600090a35050565b600060208284031215610a6957600080fd5b81356001600160a01b0381168114610a8057600080fd5b9392505050565b600060208284031215610a9957600080fd5b5035919050565b634e487b7160e01b600052601160045260246000fd5b818103818111156102ed576102ed610aa0565b80820281158282048414176102ed576102ed610aa0565b600082610afd57634e487b7160e01b600052601260045260246000fd5b500490565b808201808211156102ed576102ed610aa0565b600060208284031215610b2757600080fd5b81518015158114610a8057600080fd5b6020808252600f908201526e151c985b9cd9995c8819985a5b1959608a1b60408201526060019056fea2646970667358221220dcaf15a006d880404aae3dac90b10586e3a392fa28413d1a2c2bb20b8ba1a6eb64736f6c63430008110033",
  "linkReferences": {},
  "deployedLinkReferences": {}
}