{
  "_format": "hh-sol-artifact-1",
  "contractName": "MockEndpoint",
  "sourceName": "contracts/mocks/MockEndpoint.sol",
  "abi": [
    {
      "inputs": [
        {
          "internalType": "uint16",
          "name": "_dstChainId",
          "type": "uint16"
        },
        {
          "internalType": "address",
          "name": "_userApplication",
          "type": "address"
        },
        {
          "internalType": "bytes",
          "name": "_payload",
          "type": "bytes"
        },
        {
          "internalType": "bool",
          "name": "_payInZRO",
          "type": "bool"
        },
        {
          "internalType": "bytes",
          "name": "_adapterParam",
          "type": "bytes"
        }
      ],
      "name": "estimateFees",
      "outputs": [
        {
          "internalType": "uint256",
          "name": "nativeFee",
          "type": "uint256"
        },
        {
          "internalType": "uint256",
          "name": "zroFee",
          "type": "uint256"
        }
      ],
      "stateMutability": "view",
      "type": "function"
    },
    {
      "inputs": [
        {
          "internalType": "uint16",
          "name": "_srcChainId",
          "type": "uint16"
        },
        {
          "internalType": "bytes",
          "name": "_srcAddress",
          "type": "bytes"
        }
      ],
      "name": "forceResumeReceive",
      "outputs": [],
      "stateMutability": "nonpayable",
      "type": "function"
    },
    {
      "inputs": [
        {
          "internalType": "uint16",
          "name": "_version",
          "type": "uint16"
        },
        {
          "internalType": "uint16",
          "name": "_chainId",
          "type": "uint16"
        },
        {
          "internalType": "address",
          "name": "_userApplication",
          "type": "address"
        },
        {
          "internalType": "uint256",
          "name": "_configType",
          "type": "uint256"
        }
      ],
      "name": "getConfig",
      "outputs": [
        {
          "internalType": "bytes",
          "name": "",
          "type": "bytes"
        }
      ],
      "stateMutability": "pure",
      "type": "function"
    },
    {
      "inputs": [
        {
          "internalType": "uint16",
          "name": "_srcChainId",
          "type": "uint16"
        },
        {
          "internalType": "bytes",
          "name": "_srcAddress",
          "type": "bytes"
        }
      ],
      "name": "getInboundNonce",
      "outputs": [
        {
          "internalType": "uint64",
          "name": "",
          "type": "uint64"
        }
      ],
      "stateMutability": "view",
      "type": "function"
    },
    {
      "inputs": [
        {
          "internalType": "uint16",
          "name": "_dstChainId",
          "type": "uint16"
        },
        {
          "internalType": "address",
          "name": "_srcAddress",
          "type": "address"
        }
      ],
      "name": "getOutboundNonce",
      "outputs": [
        {
          "internalType": "uint64",
          "name": "",
          "type": "uint64"
        }
      ],
      "stateMutability": "view",
      "type": "function"
    },
    {
      "inputs": [
        {
          "internalType": "address",
          "name": "_userApplication",
          "type": "address"
        }
      ],
      "name": "getReceiveVersion",
      "outputs": [
        {
          "internalType": "uint16",
          "name": "",
          "type": "uint16"
        }
      ],
      "stateMutability": "pure",
      "type": "function"
    },
    {
      "inputs": [
        {
          "internalType": "address",
          "name": "_userApplication",
          "type": "address"
        }
      ],
      "name": "getSendVersion",
      "outputs": [
        {
          "internalType": "uint16",
          "name": "",
          "type": "uint16"
        }
      ],
      "stateMutability": "pure",
      "type": "function"
    },
    {
      "inputs": [
        {
          "internalType": "address",
          "name": "_dstAddress",
          "type": "address"
        },
        {
          "internalType": "uint16",
          "name": "_srcChainId",
          "type": "uint16"
        },
        {
          "internalType": "bytes",
          "name": "_srcAddress",
          "type": "bytes"
        },
        {
          "internalType": "uint64",
          "name": "_nonce",
          "type": "uint64"
        },
        {
          "internalType": "bytes",
          "name": "_payload",
          "type": "bytes"
        }
      ],
      "name": "mockReceive",
      "outputs": [],
      "stateMutability": "nonpayable",
      "type": "function"
    },
    {
      "inputs": [
        {
          "internalType": "address",
          "name": "",
          "type": "address"
        }
      ],
      "name": "nonce",
      "outputs": [
        {
          "internalType": "uint64",
          "name": "",
          "type": "uint64"
        }
      ],
      "stateMutability": "view",
      "type": "function"
    },
    {
      "inputs": [
        {
          "internalType": "address",
          "name": "",
          "type": "address"
        }
      ],
      "name": "payload",
      "outputs": [
        {
          "internalType": "bytes",
          "name": "",
          "type": "bytes"
        }
      ],
      "stateMutability": "view",
      "type": "function"
    },
    {
      "inputs": [
        {
          "internalType": "uint16",
          "name": "_srcChainId",
          "type": "uint16"
        },
        {
          "internalType": "bytes",
          "name": "_srcAddress",
          "type": "bytes"
        },
        {
          "internalType": "address",
          "name": "_dstAddress",
          "type": "address"
        },
        {
          "internalType": "uint64",
          "name": "_nonce",
          "type": "uint64"
        },
        {
          "internalType": "uint256",
          "name": "_gasLimit",
          "type": "uint256"
        },
        {
          "internalType": "bytes",
          "name": "_payload",
          "type": "bytes"
        }
      ],
      "name": "receivePayload",
      "outputs": [],
      "stateMutability": "nonpayable",
      "type": "function"
    },
    {
      "inputs": [
        {
          "internalType": "uint16",
          "name": "_dstChainId",
          "type": "uint16"
        },
        {
          "internalType": "bytes",
          "name": "_destination",
          "type": "bytes"
        },
        {
          "internalType": "bytes",
          "name": "_payload",
          "type": "bytes"
        },
        {
          "internalType": "address payable",
          "name": "_refundAddress",
          "type": "address"
        },
        {
          "internalType": "address",
          "name": "_zroPaymentAddress",
          "type": "address"
        },
        {
          "internalType": "bytes",
          "name": "_adapterParams",
          "type": "bytes"
        }
      ],
      "name": "send",
      "outputs": [],
      "stateMutability": "payable",
      "type": "function"
    },
    {
      "inputs": [
        {
          "internalType": "uint16",
          "name": "_version",
          "type": "uint16"
        },
        {
          "internalType": "uint16",
          "name": "_chainId",
          "type": "uint16"
        },
        {
          "internalType": "uint256",
          "name": "_configType",
          "type": "uint256"
        },
        {
          "internalType": "bytes",
          "name": "_config",
          "type": "bytes"
        }
      ],
      "name": "setConfig",
      "outputs": [],
      "stateMutability": "nonpayable",
      "type": "function"
    },
    {
      "inputs": [
        {
          "internalType": "uint16",
          "name": "_version",
          "type": "uint16"
        }
      ],
      "name": "setReceiveVersion",
      "outputs": [],
      "stateMutability": "nonpayable",
      "type": "function"
    },
    {
      "inputs": [
        {
          "internalType": "uint16",
          "name": "_version",
          "type": "uint16"
        }
      ],
      "name": "setSendVersion",
      "outputs": [],
      "stateMutability": "nonpayable",
      "type": "function"
    },
    {
      "inputs": [
        {
          "internalType": "address",
          "name": "",
          "type": "address"
        }
      ],
      "name": "srcAddress",
      "outputs": [
        {
          "internalType": "bytes",
          "name": "",
          "type": "bytes"
        }
      ],
      "stateMutability": "view",
      "type": "function"
    },
    {
      "inputs": [
        {
          "internalType": "address",
          "name": "",
          "type": "address"
        }
      ],
      "name": "srcChainId",
      "outputs": [
        {
          "internalType": "uint16",
          "name": "",
          "type": "uint16"
        }
      ],
      "stateMutability": "view",
      "type": "function"
    }
  ],
  "bytecode": "0x608060405234801561001057600080fd5b50610ce7806100206000396000f3fe6080604052600436106100fe5760003560e01c80637a03deef11610095578063c580310011610064578063c580310014610310578063cbed8b9c14610323578063da1a7c9a14610123578063f5ecbdbc14610345578063fdc07c701461037757600080fd5b80637a03deef1461025b5780637a1457481461027b57806397a12c0a146102bc578063c2fa4813146102ed57600080fd5b806342d65a8d116100d157806342d65a8d146101a05780634ea33330146101c057806358857c12146101ed57806370ae92d21461020d57600080fd5b806307e0db1714610103578063096568f61461012357806310ddb1371461010357806340a7bb101461015c575b600080fd5b34801561010f57600080fd5b5061012161011e36600461056f565b50565b005b34801561012f57600080fd5b5061014461013e3660046105a6565b50600190565b60405161ffff90911681526020015b60405180910390f35b34801561016857600080fd5b5061018b610177366004610665565b662386f26fc1000060009550959350505050565b60408051928352602083019190915201610153565b3480156101ac57600080fd5b506101216101bb36600461074d565b505050565b3480156101cc57600080fd5b506101e06101db3660046105a6565b61039b565b60405161015391906107e5565b3480156101f957600080fd5b506101e06102083660046105a6565b610435565b34801561021957600080fd5b506102436102283660046105a6565b6002602052600090815260409020546001600160401b031681565b6040516001600160401b039091168152602001610153565b34801561026757600080fd5b5061012161027636600461080f565b61044e565b34801561028757600080fd5b5061024361029636600461088c565b6001600160a01b03166000908152600260205260409020546001600160401b0316919050565b3480156102c857600080fd5b506101446102d73660046105a6565b60006020819052908152604090205461ffff1681565b3480156102f957600080fd5b506101216103083660046108c3565b505050505050565b61012161031e366004610965565b6104b7565b34801561032f57600080fd5b5061012161033e366004610a3a565b5050505050565b34801561035157600080fd5b506101e0610360366004610aa8565b604080516020810190915260008152949350505050565b34801561038357600080fd5b5061024361039236600461074d565b60009392505050565b600160205260009081526040902080546103b490610af5565b80601f01602080910402602001604051908101604052809291908181526020018280546103e090610af5565b801561042d5780601f106104025761010080835404028352916020019161042d565b820191906000526020600020905b81548152906001019060200180831161041057829003601f168201915b505050505081565b600360205260009081526040902080546103b490610af5565b604051621d356760e01b81526001600160a01b03861690621d35679061047e908790879087908790600401610b2f565b600060405180830381600087803b15801561049857600080fd5b505af11580156104ac573d6000803e3d6000fd5b505050505050505050565b33600090815260208181526040808320805461ffff191661ffff8e16179055600190915290206104e8888a83610bbe565b50336000908152600360205260409020610503868883610bbe565b5033600090815260026020526040812080546001600160401b03169161052883610c7d565b91906101000a8154816001600160401b0302191690836001600160401b0316021790555050505050505050505050565b803561ffff8116811461056a57600080fd5b919050565b60006020828403121561058157600080fd5b61058a82610558565b9392505050565b6001600160a01b038116811461011e57600080fd5b6000602082840312156105b857600080fd5b813561058a81610591565b634e487b7160e01b600052604160045260246000fd5b600082601f8301126105ea57600080fd5b81356001600160401b0380821115610604576106046105c3565b604051601f8301601f19908116603f0116810190828211818310171561062c5761062c6105c3565b8160405283815286602085880101111561064557600080fd5b836020870160208301376000602085830101528094505050505092915050565b600080600080600060a0868803121561067d57600080fd5b61068686610558565b9450602086013561069681610591565b935060408601356001600160401b03808211156106b257600080fd5b6106be89838a016105d9565b94506060880135915081151582146106d557600080fd5b909250608087013590808211156106eb57600080fd5b506106f8888289016105d9565b9150509295509295909350565b60008083601f84011261071757600080fd5b5081356001600160401b0381111561072e57600080fd5b60208301915083602082850101111561074657600080fd5b9250929050565b60008060006040848603121561076257600080fd5b61076b84610558565b925060208401356001600160401b0381111561078657600080fd5b61079286828701610705565b9497909650939450505050565b6000815180845260005b818110156107c5576020818501810151868301820152016107a9565b506000602082860101526020601f19601f83011685010191505092915050565b60208152600061058a602083018461079f565b80356001600160401b038116811461056a57600080fd5b600080600080600060a0868803121561082757600080fd5b853561083281610591565b945061084060208701610558565b935060408601356001600160401b038082111561085c57600080fd5b61086889838a016105d9565b9450610876606089016107f8565b935060808801359150808211156106eb57600080fd5b6000806040838503121561089f57600080fd5b6108a883610558565b915060208301356108b881610591565b809150509250929050565b60008060008060008060c087890312156108dc57600080fd5b6108e587610558565b955060208701356001600160401b038082111561090157600080fd5b61090d8a838b016105d9565b96506040890135915061091f82610591565b81955061092e60608a016107f8565b94506080890135935060a089013591508082111561094b57600080fd5b5061095889828a016105d9565b9150509295509295509295565b600080600080600080600080600060c08a8c03121561098357600080fd5b61098c8a610558565b985060208a01356001600160401b03808211156109a857600080fd5b6109b48d838e01610705565b909a50985060408c01359150808211156109cd57600080fd5b6109d98d838e01610705565b909850965060608c013591506109ee82610591565b90945060808b013590610a0082610591565b90935060a08b01359080821115610a1657600080fd5b50610a238c828d01610705565b915080935050809150509295985092959850929598565b600080600080600060808688031215610a5257600080fd5b610a5b86610558565b9450610a6960208701610558565b93506040860135925060608601356001600160401b03811115610a8b57600080fd5b610a9788828901610705565b969995985093965092949392505050565b60008060008060808587031215610abe57600080fd5b610ac785610558565b9350610ad560208601610558565b92506040850135610ae581610591565b9396929550929360600135925050565b600181811c90821680610b0957607f821691505b602082108103610b2957634e487b7160e01b600052602260045260246000fd5b50919050565b61ffff85168152608060208201526000610b4c608083018661079f565b6001600160401b03851660408401528281036060840152610b6d818561079f565b979650505050505050565b601f8211156101bb57600081815260208120601f850160051c81016020861015610b9f5750805b601f850160051c820191505b8181101561030857828155600101610bab565b6001600160401b03831115610bd557610bd56105c3565b610be983610be38354610af5565b83610b78565b6000601f841160018114610c1d5760008515610c055750838201355b600019600387901b1c1916600186901b17835561033e565b600083815260209020601f19861690835b82811015610c4e5786850135825560209485019460019092019101610c2e565b5086821015610c6b5760001960f88860031b161c19848701351681555b505060018560011b0183555050505050565b60006001600160401b03808316818103610ca757634e487b7160e01b600052601160045260246000fd5b600101939250505056fea26469706673582212205a14e0cc3e08fa660cce563cf127e93a808f3e68c2e8b71d915a3a2a4478d13764736f6c63430008110033",
  "linkReferences": {},
  "deployedLinkReferences": {}
}